{
  "contractName": "Audit",
  "abi": [
    {
      "inputs": [
        {
          "internalType": "string",
          "name": "",
          "type": "string"
        }
      ],
      "name": "transactions",
      "outputs": [
        {
          "internalType": "string",
          "name": "",
          "type": "string"
        }
      ],
      "stateMutability": "view",
      "type": "function",
      "constant": true
    },
    {
      "inputs": [
        {
          "internalType": "string",
          "name": "transactionId",
          "type": "string"
        },
        {
          "internalType": "string",
          "name": "hash",
          "type": "string"
        }
      ],
      "name": "logTransaction",
      "outputs": [],
      "stateMutability": "nonpayable",
      "type": "function"
    },
    {
      "inputs": [
        {
          "internalType": "string",
          "name": "transactionId",
          "type": "string"
        },
        {
          "internalType": "string",
          "name": "hash",
          "type": "string"
        }
      ],
      "name": "auditTransaction",
      "outputs": [
        {
          "internalType": "bool",
          "name": "",
          "type": "bool"
        }
      ],
      "stateMutability": "view",
      "type": "function",
      "constant": true
    }
  ],
  "bytecode": "0x608060405234801561001057600080fd5b50610758806100206000396000f3fe608060405234801561001057600080fd5b50600436106100415760003560e01c8063022236f414610046578063207a69f114610076578063d8628357146100a6575b600080fd5b610060600480360381019061005b9190610338565b6100c2565b60405161006d919061053a565b60405180910390f35b610090600480360381019061008b9190610381565b610178565b60405161009d919061051f565b60405180910390f35b6100c060048036038101906100bb9190610381565b6101ee565b005b60008180516020810182018051848252602083016020850120818352809550505050505060009150905080546100f79061063c565b80601f01602080910402602001604051908101604052809291908181526020018280546101239061063c565b80156101705780601f1061014557610100808354040283529160200191610170565b820191906000526020600020905b81548152906001019060200180831161015357829003601f168201915b505050505081565b60008160405160200161018b91906104f1565b604051602081830303815290604052805190602001206000846040516101b191906104f1565b90815260200160405180910390206040516020016101cf9190610508565b6040516020818303038152906040528051906020012014905092915050565b806000836040516101ff91906104f1565b90815260200160405180910390209080519060200190610220929190610225565b505050565b8280546102319061063c565b90600052602060002090601f016020900481019282610253576000855561029a565b82601f1061026c57805160ff191683800117855561029a565b8280016001018555821561029a579182015b8281111561029957825182559160200191906001019061027e565b5b5090506102a791906102ab565b5090565b5b808211156102c45760008160009055506001016102ac565b5090565b60006102db6102d684610581565b61055c565b9050828152602081018484840111156102f7576102f6610702565b5b6103028482856105fa565b509392505050565b600082601f83011261031f5761031e6106fd565b5b813561032f8482602086016102c8565b91505092915050565b60006020828403121561034e5761034d61070c565b5b600082013567ffffffffffffffff81111561036c5761036b610707565b5b6103788482850161030a565b91505092915050565b600080604083850312156103985761039761070c565b5b600083013567ffffffffffffffff8111156103b6576103b5610707565b5b6103c28582860161030a565b925050602083013567ffffffffffffffff8111156103e3576103e2610707565b5b6103ef8582860161030a565b9150509250929050565b610402816105ee565b82525050565b6000610413826105c7565b61041d81856105d2565b935061042d818560208601610609565b61043681610711565b840191505092915050565b600061044c826105c7565b61045681856105e3565b9350610466818560208601610609565b80840191505092915050565b6000815461047f8161063c565b61048981866105e3565b945060018216600081146104a457600181146104b5576104e8565b60ff198316865281860193506104e8565b6104be856105b2565b60005b838110156104e0578154818901526001820191506020810190506104c1565b838801955050505b50505092915050565b60006104fd8284610441565b915081905092915050565b60006105148284610472565b915081905092915050565b600060208201905061053460008301846103f9565b92915050565b600060208201905081810360008301526105548184610408565b905092915050565b6000610566610577565b9050610572828261066e565b919050565b6000604051905090565b600067ffffffffffffffff82111561059c5761059b6106ce565b5b6105a582610711565b9050602081019050919050565b60008190508160005260206000209050919050565b600081519050919050565b600082825260208201905092915050565b600081905092915050565b60008115159050919050565b82818337600083830152505050565b60005b8381101561062757808201518184015260208101905061060c565b83811115610636576000848401525b50505050565b6000600282049050600182168061065457607f821691505b602082108114156106685761066761069f565b5b50919050565b61067782610711565b810181811067ffffffffffffffff82111715610696576106956106ce565b5b80604052505050565b7f4e487b7100000000000000000000000000000000000000000000000000000000600052602260045260246000fd5b7f4e487b7100000000000000000000000000000000000000000000000000000000600052604160045260246000fd5b600080fd5b600080fd5b600080fd5b600080fd5b6000601f19601f830116905091905056fea264697066735822122007d01901c85ad1bcac2c63e868e6dcc908c21f87e309f03b50bf093998113ce164736f6c63430008070033",
  "immutableReferences": {},
  "source": "// SPDX-License-Identifier: MIT\r\npragma solidity ^0.8.0;\r\n\r\ncontract Audit {\r\n    // Mapping to store transaction hashes against transaction IDs\r\n    mapping(string => string) public transactions;\r\n\r\n    // Function to log a transaction\r\n    function logTransaction(string memory transactionId, string memory hash) public {\r\n                // Store the transaction hash\r\n        transactions[transactionId] = hash;\r\n    }\r\n\r\n    // Function to audit a transaction\r\n    function auditTransaction(string memory transactionId, string memory hash) public view returns (bool) {\r\n  \r\n        // Compare the provided hash with the stored hash\r\n        return keccak256(abi.encodePacked(transactions[transactionId])) == keccak256(abi.encodePacked(hash));\r\n    }\r\n}\r\n",
  "sourcePath": "E:\\BlockC Project\\truffle\\contracts\\aduit.sol",
  "compiler": {
    "name": "solc",
    "version": "0.8.7+commit.e28d00a7.Emscripten.clang"
  },
  "schemaVersion": "3.4.16",
  "updatedAt": "2025-01-02T06:08:40.867Z",
  "networkType": "ethereum",
  "devdoc": {
    "kind": "dev",
    "methods": {},
    "version": 1
  },
  "userdoc": {
    "kind": "user",
    "methods": {},
    "version": 1
  }
}