{
  "contractName": "Penalty",
  "abi": [
    {
      "inputs": [
        {
          "internalType": "uint256",
          "name": "dueDate",
          "type": "uint256"
        },
        {
          "internalType": "uint256",
          "name": "amount",
          "type": "uint256"
        }
      ],
      "name": "applyPenalty",
      "outputs": [
        {
          "internalType": "uint256",
          "name": "",
          "type": "uint256"
        }
      ],
      "stateMutability": "view",
      "type": "function",
      "constant": true
    }
  ],
  "bytecode": "0x608060405234801561001057600080fd5b506101ed806100206000396000f3fe608060405234801561001057600080fd5b506004361061002b5760003560e01c8063d0f0887214610030575b600080fd5b61004a600480360381019061004591906100a2565b610060565b60405161005791906100f1565b60405180910390f35b6000804290508381106100825760028361007a919061010c565b915050610087565b829150505b92915050565b60008135905061009c816101a0565b92915050565b600080604083850312156100b9576100b861019b565b5b60006100c78582860161008d565b92505060206100d88582860161008d565b9150509250929050565b6100eb81610162565b82525050565b600060208201905061010660008301846100e2565b92915050565b600061011782610162565b915061012283610162565b9250827fffffffffffffffffffffffffffffffffffffffffffffffffffffffffffffffff038211156101575761015661016c565b5b828201905092915050565b6000819050919050565b7f4e487b7100000000000000000000000000000000000000000000000000000000600052601160045260246000fd5b600080fd5b6101a981610162565b81146101b457600080fd5b5056fea2646970667358221220f2133f6977f15a5fc401ca2f7f0ec4f9b31879dc115bed9d73c62a815f0d319464736f6c63430008070033",
  "immutableReferences": {},
  "source": "// SPDX-License-Identifier: MIT\r\npragma solidity ^0.8.0;\r\n\r\ncontract Penalty {\r\n   \r\n    function applyPenalty(uint256 dueDate, uint256 amount) public view returns (uint256) {\r\n        uint256 currentDate = block.timestamp;\r\n\r\n        if (currentDate >= dueDate) {\r\n            return amount + 2;\r\n        }\r\n\r\n        return amount; // No penalty if paid on or before the due date\r\n    }\r\n}\r\n",
  "sourcePath": "E:\\BlockC Project\\truffle\\contracts\\panelty.sol",
  "compiler": {
    "name": "solc",
    "version": "0.8.7+commit.e28d00a7.Emscripten.clang"
  },
  "schemaVersion": "3.4.16",
  "updatedAt": "2025-01-02T06:08:40.848Z",
  "networkType": "ethereum",
  "devdoc": {
    "kind": "dev",
    "methods": {},
    "version": 1
  },
  "userdoc": {
    "kind": "user",
    "methods": {},
    "version": 1
  }
}