{
  "contractName": "Refund",
  "abi": [
    {
      "inputs": [],
      "name": "limit",
      "outputs": [
        {
          "internalType": "uint256",
          "name": "",
          "type": "uint256"
        }
      ],
      "stateMutability": "view",
      "type": "function",
      "constant": true
    },
    {
      "inputs": [
        {
          "internalType": "uint256",
          "name": "newlimit",
          "type": "uint256"
        }
      ],
      "name": "updatelimit",
      "outputs": [],
      "stateMutability": "nonpayable",
      "type": "function"
    },
    {
      "inputs": [
        {
          "internalType": "uint256",
          "name": "amount",
          "type": "uint256"
        }
      ],
      "name": "validateAmount",
      "outputs": [
        {
          "internalType": "bool",
          "name": "",
          "type": "bool"
        }
      ],
      "stateMutability": "view",
      "type": "function",
      "constant": true
    }
  ],
  "bytecode": "0x6080604052600f60005534801561001557600080fd5b506101cc806100256000396000f3fe608060405234801561001057600080fd5b50600436106100415760003560e01c806309ac44ee14610046578063a4d66daf14610062578063c3c563f414610080575b600080fd5b610060600480360381019061005b91906100e3565b6100b0565b005b61006a6100ba565b6040516100779190610149565b60405180910390f35b61009a600480360381019061009591906100e3565b6100c0565b6040516100a7919061012e565b60405180910390f35b8060008190555050565b60005481565b600080548211159050919050565b6000813590506100dd8161017f565b92915050565b6000602082840312156100f9576100f861017a565b5b6000610107848285016100ce565b91505092915050565b61011981610164565b82525050565b61012881610170565b82525050565b60006020820190506101436000830184610110565b92915050565b600060208201905061015e600083018461011f565b92915050565b60008115159050919050565b6000819050919050565b600080fd5b61018881610170565b811461019357600080fd5b5056fea26469706673582212201aa2782052d13b0fd898926cc1c09a0dde481a260a509a2b81b6ff485be972a164736f6c63430008070033",
  "immutableReferences": {},
  "source": "// SPDX-License-Identifier: MIT\r\npragma solidity ^0.8.0;\r\n\r\ncontract Refund {\r\n    uint256 public limit=15;\r\n\r\n    function updatelimit(uint256 newlimit) public {\r\n        limit = newlimit;\r\n    }\r\n\r\n    // Function to validate the payment amount\r\n    function validateAmount(uint256 amount) public view returns (bool) {\r\n        return amount <= limit;\r\n    }\r\n}",
  "sourcePath": "E:\\BlockC Project\\truffle\\contracts\\refund.sol",
  "compiler": {
    "name": "solc",
    "version": "0.8.7+commit.e28d00a7.Emscripten.clang"
  },
  "schemaVersion": "3.4.16",
  "updatedAt": "2025-01-02T06:08:40.854Z",
  "networkType": "ethereum",
  "devdoc": {
    "kind": "dev",
    "methods": {},
    "version": 1
  },
  "userdoc": {
    "kind": "user",
    "methods": {},
    "version": 1
  }
}