{
  "contractName": "Schedule",
  "abi": [
    {
      "inputs": [
        {
          "internalType": "address",
          "name": "paymentContractAddress",
          "type": "address"
        },
        {
          "internalType": "uint256",
          "name": "amount",
          "type": "uint256"
        }
      ],
      "name": "setContractsAndApplyDiscount",
      "outputs": [
        {
          "internalType": "uint256",
          "name": "",
          "type": "uint256"
        }
      ],
      "stateMutability": "nonpayable",
      "type": "function"
    }
  ],
  "bytecode": "0x608060405234801561001057600080fd5b50610296806100206000396000f3fe608060405234801561001057600080fd5b506004361061002b5760003560e01c806371975e7c14610030575b600080fd5b61004a60048036038101906100459190610124565b610060565b6040516100579190610173565b60405180910390f35b6000808390506000839050600f84111561008457600284610081919061018e565b90505b8173ffffffffffffffffffffffffffffffffffffffff16639012c4a8826040518263ffffffff1660e01b81526004016100bd9190610173565b600060405180830381600087803b1580156100d757600080fd5b505af11580156100eb573d6000803e3d6000fd5b50505050809250505092915050565b60008135905061010981610232565b92915050565b60008135905061011e81610249565b92915050565b6000806040838503121561013b5761013a61022d565b5b6000610149858286016100fa565b925050602061015a8582860161010f565b9150509250929050565b61016d816101f4565b82525050565b60006020820190506101886000830184610164565b92915050565b6000610199826101f4565b91506101a4836101f4565b9250828210156101b7576101b66101fe565b5b828203905092915050565b60006101cd826101d4565b9050919050565b600073ffffffffffffffffffffffffffffffffffffffff82169050919050565b6000819050919050565b7f4e487b7100000000000000000000000000000000000000000000000000000000600052601160045260246000fd5b600080fd5b61023b816101c2565b811461024657600080fd5b50565b610252816101f4565b811461025d57600080fd5b5056fea26469706673582212202b24801988cfe53cd404660b7aab6912c3345482947674c13505c8457856265d64736f6c63430008070033",
  "immutableReferences": {},
  "source": "// SPDX-License-Identifier: MIT\r\npragma solidity ^0.8.0;\r\n// Import the interfaces\r\nimport \"./payment.sol\";\r\n\r\n\r\ncontract Schedule {\r\n    \r\n    function setContractsAndApplyDiscount(address paymentContractAddress,uint256 amount) public returns (uint256) {\r\n        Payment paymentContract = Payment(paymentContractAddress);\r\n      \r\n\r\n        // Apply discount if the amount exceeds the threshold\r\n        uint256 updatedAmount = amount;\r\n\r\n        if (amount > 15) {\r\n            updatedAmount = amount - 2;\r\n        }\r\n\r\n        // Update linked contracts with the new amount\r\n         paymentContract.updateFee(updatedAmount);\r\n        \r\n\r\n        return updatedAmount;\r\n    }\r\n}\r\n",
  "sourcePath": "E:\\BlockC Project\\truffle\\contracts\\schedule.sol",
  "compiler": {
    "name": "solc",
    "version": "0.8.7+commit.e28d00a7.Emscripten.clang"
  },
  "schemaVersion": "3.4.16",
  "updatedAt": "2025-01-02T06:08:40.859Z",
  "networkType": "ethereum",
  "devdoc": {
    "kind": "dev",
    "methods": {},
    "version": 1
  },
  "userdoc": {
    "kind": "user",
    "methods": {},
    "version": 1
  }
}